:400000000010002011000000AD0B0000AD0B000080B500AF01F092FA00F0FAFD80B500AF1E4B12221A60302000F0E4FF1C4B802252001A608023DB051A4A1A601A4BC0222C
:4000400092001A608023DB05184A1A60184B882292011A608023DB05164A1A60164B20221A60164B40221A60154B40221A60154B41221A60144B42221A60144B0B20191CCF
:4000800001F04CF80B2001F0C3F8114B00221A60002001F06FFABD4680BDC046300010400003004040FF00800403004041FF00800803004042FF0080280003403801004003
:4000C000340100403001004004010040591600000C02064080B500AF72B60F4B0F4A1A600F4B00221A600F4B27221A600E4B20221A600E4B0E4A1A600E4B20221A600E4B18
:400100000D221A600D4B0D221A60FFF787FF00F0FBFDBD4680BDC04600000240EE00990004013F4000200040000004400800044036100300180004400001044018010440E7
:4001400010B5064C2378002B07D1054B002B02D0044800E000BF0123237010BD20030020000000000C36000008B5084B002B03D00748084900E000BF07480368002B00D186
:4001800008BD064B002BFBD09847F9E7000000000C36000024030020B00000200000000090B583B000AFFB1D01221A7072B600F099F900F09FF800F09DFC62B60EE0BC1D96
:4001C00000F096F9031C2370BB1D1B78181C00F0C9F8BB1D1B78181C00F094FCFB1D1B78002BECD10023181CBD4603B090BDC04680B582B000AF78607B680020191C01F055
:4002000087F8031C181CBD4602B080BD80B586B000AF786000237B6100233B610023FB6020E03B695B003B617B699A007B689B0FD3187B617B689B007B603B6901333B6192
:400240003A697B699A4207D87A693B69D31A7B613B6901333B6102E03B69013B3B61FB680133FB60FB680F2BDBDD3B695B089BB2181CBD4606B080BD80B500AF01F0B8FACE
:40028000012000F073F9BD4680BDC04680B586B000AF7860396000237B6100233B610E23FB187A6812881A8000233B6118E03B695B007A68D31819880E23FB1800229A5E56
:4002C0000BB29A4209DA3B695B007A68D2180E23FB1812881A803B697B613B6901333B613A693B689A42E2D37B69181CBD4606B080BDC04680B582B000AF00237B6001F05B
:40030000C7FC01F049FA01F017FD0D4B181CFFF76FFF0C4B1B685A020B4BD3180B4A101C191C02F039FA0C2000F072FF01F046FA01F024FB7B68181CBD4602B080BDC046A2
:40034000790200003C0B00203C03002080013A4080B500AF024B1B68181CBD4680BDC046400B002080B584B000AF78600B23FB187A681A700B23FB181B78022B00D19BE0BE
:40038000042B30D0012B00D097E04D4B1B68013301221A404A4B1A60494B1B68012213405A425341DBB21A1C464B1A60454B1B685A02454BD218454980239B00081C111C2F
:4003C0001A1C02F011FD3E4B1B685A023E4BD3183F4A101C191C02F0DFF901F0EFF9042000F0C4F869E0394B181C0921002200F013FB0023FB6026E0344BFA685200D35A5F
:400400001BB2324AF96849008A5A12B25A43FB68591CFF312D4B4900CB5A1BB2F968481CFF302A494000415A09B24B43D318181CFFF7ECFE031C99B2244BFA685200D1528F
:40044000FB680133FB60FB68FF2BD5DD214B181C7F21FFF71BFF021C131C5B019B1A5B001A1C1D4B1A601C4B1B68181C3E2102F00DFB031C1A1C154B5200D35A1BB2132B74
:4004800003DC164B00221A600BE0134B1A68131C9B009B185B00124A944663441A1C0F4B1A600E4B1B68002B02DA0C4B00221A60022000F05BF800E0C046BD4604B080BDC1
:4004C0003C0B0020480B00203C0300203C07002080013A403E070020440B0020400B0020C063FFFF80B500AF0023181CBD4680BD90B583B000AF194B1B68002B04D0184B1A
:400500001B68184AD25C00E00022FB1D1A70FB1D1B78002B1CD0BC1D02F077FA031C23700F4B1B680133104A134004D5013B40225242134301331A1C094B1A60074B1B6828
:400540005A1E064B1A60BB1D1B78181C02F061FAFB1D1B78181CBD4603B090BD540B0020500B0020580B00203F00008090B585B000AF021CFB1D1A700023FB60184B1B68E1
:400580003F2B25DC0B23FC1802F03FFA031C2370144B1B68144AF91D0978D154114B1B680133124A134004D5013B40225242134301331A1C0B4B1A60094B1B685A1C084BB8
:4005C0001A600B23FB181B78181C02F022FA02E001235B42FB60FB68181CBD4605B090BD540B00204C0B0020580B00203F00008080B584B000AF021CBB1D1A803B1D0A1C73
:400600001A80BB1D00229B5E3A1D0021525E53439B13FB60FB689AB23B1D111C01220A401A80FB685B109AB23B1D1B88D3189AB2BB1D1A80BB1D1B881BB2181CBD4604B03A
:4006400080BDC04690B593B000AFF860B960191CBB1D1A803B1D0A1C1A80BB1D00229B5E01229A40131C3B623A6A8023DB009A4202DD01235B42C6E100237B643B6A013BEC
:40068000FB6100233B63BB1D01221A805AE03B6ABB63BB6B5B10BB637A6CBB6BD218FB699A42F6DCBB6B013B7A6C1A40BB6BD3187B64BB1D00229A5E7B6C9A4200DB3BE097
:4006C000BB1D00229B5E5B00FA68D2181A23FB1812881A80BB1D00229B5E5B00FA68D3187A6C5200F9688A1812881A807B6C5B00FA68D3181A22BA1812881A80BB1D002207
:400700009B5E5B00BA68D2181823FB1812881A80BB1D00229B5E5B00BA68D3187A6C5200B9688A1812881A807B6C5B00BA68D3181822BA1812881A80BB1D1B8801339AB2C3
:40074000BB1D1A80BB1D00229A5EFB699A429EDD0123BB6309237B634FE13B1D00229B5E002B3ED00023FB6200233B642EE03B6C5B00FA68D3181B881BB2FB63FB6B002B34
:4007800002DAFB6B5B42FB633B6C5B00BA68D218BB1D12881A80BB1D00229B5E002B05DABB1D1B885B429AB2BB1D1A80FB6B984A934205DCBB1D00229B5E954A934202DD8B
:4007C0000123FB6206E03B6C01333B643A6C3B6A9A42CCDBFB6A002B05D03B6B01333B6301E00123FB62BB6B5B007B61BB1D00221A80F6E0BB1D00229A5E7B6B9A40131C63
:40080000FB63FB6B591CFF312623FB18814A49008A5A1A807F4BFA6B5200D35A9BB25B429AB22423FB181A803B1D00229B5E002B07D02423FB181B885B429AB22423FB18D4
:400840001A80FB6A002B0FD02623FB182622BA180021525E52101A802423FB182422BA180021525E52101A80BB1D00229B5E3B64ACE03A6CBB6BD318FB63FB6B5B00FA6897
:40088000D31819882623FB1800229A5E0BB2101C191CFFF7ADFE031C9CB2FB6B5B00BA68D31819882423FB1800229A5E0BB2101C191CFFF79DFE031C9BB2E31A9AB21A2386
:4008C000FB181A80FB6B5B00BA68D31819882623FB1800229A5E0BB2101C191CFFF788FE031C9CB2FB6B5B00FA68D31819882423FB1800229A5E0BB2101C191CFFF778FEB2
:40090000031C9BB2E3189AB21823FB181A803B6C5B00FA68D2182A23FB1812881A803B6C5B00BA68D2182823FB1812881A80FB6A002B0FD02A23FB182A22BA180021525EDC
:4009400052101A802823FB182822BA180021525E52101A80FB6B5B00FA68D3182A22BA1811881A22BA1812888A1A92B292B21A80FB6B5B00BA68D3182822BA181188182244
:40098000BA1812888A1A92B292B21A803B6C5B00FA68D3182A22BA1811881A22BA1812888A1892B292B21A803B6C5B00BA68D3182822BA1811881822BA1812888A1892B243
:4009C00092B21A803A6C7B69D3183B643A6C3B6A9A4200DA4DE7BB1D1B8801339AB2BB1D1A80BB1D00229A5EBB6B9A4200DA01E77B6B013B7B637B69BB63BA6B3B6A9A4205
:400A000000DAAAE63B6B181CBD4613B090BDC046FF3F00001036000080B58AB000AFF860B9607A60BB68013B01229A40131CFB6100233B62FB68BB61FB695B00FA68D3183A
:400A40007B617B68002B0ED0BB689BB2013B9BB29AB27B689BB27869B96912B21BB2FFF7F1FD031C3B6201237B6226E0FA697B6AD3181F4A944663445B00FA68D218122305
:400A8000FB1812881A80FA697B6AD318184A944663445B00FA68D3187A6A5200F9688A1812881A807B6A5B00FA68D3181222BA1812881A807B6A02337B627A6AFB699A42E2
:400AC000D4DB7B68002B0ED1BB689BB2013B9BB29AB27B689BB27869B96912B21BB2FFF7B1FD031C3B623B6A181CBD460AB080BDFFFFFF7F80B500AF01F0A6FE01F092FEA8
:400B0000BD4680BD90B585B000AF78600F23FB187A681A700F23FB181B78022B02D0062B2AD02DE0FFF714FC031C9AB21B4B1A801A4B1B881C1C194B5B681949194A081CF3
:400B4000111C221C02F05AF9174B1B78002B12D1124B5B685A1C114B5A60114B181C02F06FF9021C0E4B181C111C01F09FFE0E4B01221A7004E003E00B4B00221A70C046F1
:400B8000094B1B78002B06D001F0AAFE031E02D10620FFF7EBFCBD4605B090BD9C0B0020A40B0020103C0000980B002080B500AF02F0EEF8031C1B680C2B00D1FEE7FEE7E3
:400BC00080B584B000AF78600F4B1A687B68D3181A1C0E4BD31A002B09DC0B4B1B68FB60094B1A687B68D218074B1A6007E002F0CFF8031C0C221A6001235B42FB60FB6846
:400C0000181CBD4604B080BDB4000020400C002080B586B000AF224B7B61224B3B61204B7B6135E03B691B68FB603B695B68BB603B699B683B6000237B600CE0FB681A686F
:400C4000BB681A60BB680433BB60FB680433FB607B6804337B607A683B689A42EED13B69DB683B6000237B6008E0BB6800221A60BB680433BB607B6804337B607A683B6842
:400C80009A42F2D13B6910333B617B69013B7B617B69002BC6D102F081F8FFF781FAFEE701000000343D000080B582B000AF00237B600FE07B68032B04D80E4B7A68920080
:400CC000D35800E00C4B0D4A796889008B507B6801337B607B68282BECD9FFF7FBF9084B00221A60074B802292051A60BD4602B080BDC04600000000AD0B0000000000205B
:400D0000A800002008ED00E080B500AF224B802212061A60214B224A1A60224B802292031A60214B802212061A60204B204A1A60204B214A1A60214B802292001A60204B5D
:400D4000802212061A601F4B1F4A1A601F4B204A1A60204B8022D2051A601F4B802212061A601E4B08221A601D4B1E4A1A601E4B802292021A601D4B03221A601C4B1D4A63
:400D80001A601D4BF1221A601C4B00221A60012000F036F8BD4680BD00003040800030409000040090003040000031408000314004008022880031408000080190003140C3
:400DC00000003840180038400400000220003840010000011801384020013840400138404801384008000008C001384008013F4000023F400100008004023F40000E3F40C2
:400E000080B584B000AF021CFB1D1A700B4B1B68FB60FB1D1B78002B05D0FB68802212061343FB6003E0FB685B005B08FB60034BFA681A60BD4604B080BDC04680033A40AD
:400E400080B582B000AF021CFB1D1A70FB1D1B78002B00D007E0054B04221A60044B802252031A60C046BD4602B080BD900031409000304080B582B000AF021CFB1D1A7090
:400E8000FB1D1B78002B00D007E0054B04221A60044B802252031A60C046BD4602B080BD940031409400304090B587B000AF00233B6100F035FB031E69D00F23FC1801F059
:400EC000A4FD031C2370334B1B68072213409B0018331A1C304B1B689B08191C03230B40DA40131CBB602D4B1B682D4A13407B61BB682C4A53438022D20194466344DB0BAF
:400F0000013B5B055B0D7A6913437B617B69A022520313437B61BB68192B05D87B69FF22920513437B6116E0BB681F4A944663441B78DBB2191CBB681A3B1C4AD35CCB1811
:400F40003B613B69FF2B00D9FF233B613B699B057A6913437B61114B7A691A60144B1B687B60302001F058FD124B124A12688021C9050A431A60142000F068F90C4B7A68E4
:400F80001A600F23FB181B78181C01F042FDBD4607B090BD080F0340280003400800064000F800C040420F00CDF1FF0F403C0000300010400000064080B500AF034B034A8B
:400FC000126803490A401A60BD4680BD00000640FFFFFFBF80B500AF054B1A688023DB05134001D0012300E00023181CBD4680BD0000064090B585B000AF78600023FB6068
:401000007B68182B11D07B681C2B0ED07B68202B0BD07B68242B08D07B68282B05D07B682C2B02D07B68302B65D10B23FC1801F0ECFC031C2370FFF7CDFF031E03D001235C
:40104000FB60FFF7B9FF2F4B2E4A126807218A431A607B682C4A9A180A23FB1812781A702A4B0A22BA1812781A60294B284A126807218A431A60274B264A12687F218A431E
:40108000111C7A682448844662441278D2B2101C7F2202400A431A60322001F0ADFC7B68182B1CD9174B174A126807218A43111C7A681C3A9208072002400A431A603220A7
:4010C00001F09AFC0F4B0F4A126807218A43111C7A68183A9208072002400A431A60FB68012B01D1FFF7E0FE0B23FB181B78181C01F08FFC02E0002000F09EF8BD4605B023
:4011000090BDC046080F0340CDF1FF0F0C0F0340100F0340180F0340B4F1FF0F80B584B000AF021C3960FB1D1A7080239B05FB60FB1D1B78182B02D9002000F07DF8FB1DE4
:401140001B7810339B00FA68D3181B68BB60FB1D1B7810339B00FA68D3183A681A60BB68181CBD4604B080BD90B587B000AF021CFB1D1A70BB1D0A1C1A70BB1D1B78032BCA
:4011800002D9002000F058F8FB1D1B78182B02D9002000F051F8FB1D1B7803221340DB0006337B611323FC1801F02FFC031C2370FB1D1B789B08DBB29B00144A9446634452
:4011C0001B68FB607B6903229A40131CDA43FB681340FB60BB1D1A787B699A40131CFA681343FB60FB1D1B789B08DBB29B00074A94466344FA681A601323FB181B78181C33
:4012000001F007FCBD4607B090BDC04600E400E080B582B000AF021CFB1D1A70054BFA1D12781F210A40012191400A1C1A60BD4602B080BD00E100E080B582B000AF021C1E
:40124000FB1D1A7001BEBD4602B080BD80B582B000AF786009E00C4B1B68181C01F0CCFB7B680A4A944663447B607A6880231B029A42F0D8064B1B687A685343181C01F034
:40128000BBFBBD4602B080BDC40000200080FFFFBC00002080B582B000AF021CBB1D1A80BB1D1B88044A12785343181C01F0A4FBBD4602B080BDC046C000002080B500AF39
:4012C0000A4B1B78002B0AD1094B181C00F014F80C200321FFF748FF044B01221A70054B802212061A60BD4680BDC046E40B0020591300000010104080B582B000AF786060
:401300007B680C20191CFFF709FFBD4602B080BD80B584B000AF786039607B68002B04DB7B68072B01DC012300E00023002B02D10020FFF781FF074B7A689200D358FB600A
:40134000044B7A6892003968D150FB68181CBD4604B080BDCC00002080B582B000AF00233B600E4B1B687B600D4B7A681A600EE07B680122134004D00A4B3A689200D35863
:4013800098477B685B087B603B6801333B607B68002BEDD1BD4602B080BDC046FC171040F0171040CC00002080B500AF0020FFF743FFBD4680BDC04680B582B000AF7860E1
:4013C0007B68002B04DB7B68072B01DC012300E00023002B02D10020FFF72EFF0649064A7B689B009B58802212061A437B689B005A50BD4602B080BD8010104080B582B01E
:4014000000AF786039607B68002B04DB7B68072B01DC012300E00023002B02D10020FFF70BFF3B68002B04DB3B68012B01DC012300E00023002B02D10020FFF7FDFE074989
:401440007B685A003B68D3181B01CB180833802212065A60BD4602B080BDC0460018104080B584B000AFF860B9607A60FB68002B04DBFB68072B01DC012300E00023002BFF
:4014800002D10020FFF7D8FEBB68002B04DBBB68012B01DC012300E00023002B02D10020FFF7CAFE0549FB685A00BB68D3181B017A685A50BD4604B080BDC04600181040EE
:4014C00080B584B000AFF860B9607A60FB68002B04DBFB68072B01DC012300E00023002B02D10020FFF7A8FEBB68002B04DBBB68012B01DC012300E00023002B02D100202B
:40150000FFF79AFE0549FB685A00BB68D3181B01CB187A685A60BD4604B080BD0018104080B500AF044B1B68002B01DA012300E00023181CBD4680BD0000064080B500AF8C
:40154000024B034A1A60BD4680BDC046380003406588EDAC80B582B000AF054B1B689B0F9B077B607B68181CBD4602B080BDC0460C02064090B585B000AF7860FFF7EAFFBD
:40158000021E7B689A4227D01D4B1D4A126803218A431A601B4B1B689B0F9B0701D17C2301E086235B00181CFFF774FE0F23FC1801F02BFA031C2370124B124A12689200A7
:4015C00091087A68920F92070A431A600F23FB181B78181C01F01DFA094B094A126803218A43111C074A1268920F920701D1022200E001220A431A60BD4605B090BDC0464C
:40160000140206400C02064090B585B000AF78600F23FC1801F0F9F9031C23707B680B4A13407B600A4B0A4A12680A4911407A680A431A60064B1B680F23FB181B78181C68
:4016400001F0E7F9BD4605B090BDC0460404040010020640FBFBFBFF80B500AF334B1B68042213401FD0324B1B680422134017D0304B1B6804221340DA432D4B1B681A40A4
:401680002B4B1A602B4B1B68042293431A1C294B1A60294B1B68002B02D0274B1B6898470420FFF7B1FF214B1A688023DB00134022D01F4B1A688023DB00134017D01D4BD2
:4016C0001A688023DB001340DA43194B1B681A40174B1A60174B1B68184A1A40154B1A60154B5B68002B02D0134B5B6898478023DB00181CFFF788FF0C4B1A688023DB023A
:40170000134011D00A4B1A688023DB02134006D0094B9B68002B02D0074B9B6898478023DB02181CFFF770FFBD4680BD10020640F0000020E80B0020EC0B0020FFFBFFFF8A
:4017400080B500AF074B03221A60074B802212061A60064B04221A60054B03221A60BD4680BDC046040C00200000314008003140140F314080B500AF054A054B1968054BE6
:401780001B680B43802109010B431360BD4680BD08003140040C002080B500AF064B1B78002B04D1FFF7CCFF034B01221A70FFF7E1FFBD4680BDC046000C002080B500AF53
:4017C0000A4B1B7801221340DBB2002B08D100F00DF9064B1B7801221343DAB2034B1A7000F0EEF9C046BD4680BDC046080C002080B500AF0D4B1A680D49131CDB009B1A19
:40180000DB00CB1830331B680222134005D000F02FFD00F021FB00F07DFF064B054A1268520052081A60C046BD4680BD0C0C0020583C000000003A4080B584B000AF786068
:401840007B681B6B0222134005D07B68DB8E181C002100F0DDFE7B689B8E181C002100F0D9FA384A7B689968374B1B68002B02DA80235B0300E000230B431360334A7B688C
:40188000DB681360324A7B689B691360314A7B68DB691360304A7B681B6913602F4A7B685B6913602E4B00221A602E4B00221A602B4A7B689B6A13602A4A7B685B6A136017
:4018C000294B01221A60294B1B68BB607B689B68F0221340402B04D07B689B68F022134008D1BB68224A1340BB60BB6801221343BB6008E0BB68802292051343BB60BB688B
:4019000001229343BB60194BBA681A600023FB600EE080235B00174A1340BB60FB689B00154A94466344BA681A60FB680133FB607B685A68FB689A42EBD8C046BD4604B08A
:4019400080BDC04600003A4080033A4004003A4018003A401C003A4010003A4014003A4028023A4038023A4018023A4030003A40FFFFFFDF0037008080003A4080B500AFE8
:40198000FFF736FFFFF71AFF094B1A688023DB02134007D0064B064A1268802149020A431A6002E0034B01221A60C046BD4680BD04003A4024003A4080B582B000AF786082
:4019C0007B68002B00D008E0064B181C00F076FC054B181C00F066FAC04600F06FFEBD4602B080BD1C0200202802002080B584B000AF0023FB600023BB60694B1B78002B43
:401A000000D0C8E00023FB6091E080235A0080239B00134013D06349BA68131CDB009B1ADB00CB1808335B680122134003D08023DB007B6006E080235B007B6002E080239F
:401A40005B017B6080235A0080235B0013402DD15449BA68131CDB009B1ADB00CB1808335B68042213401BD04E49BA68131CDB009B1ADB00CB1808331A68E0231B011A40D9
:401A8000E0231B019A420BD17B68002B00DA01335B105B4299B2444BFA685200D1520AE0414BFA6852000021D15204E03E4BFA6852000021D1527B683C4A5A43111C3948F3
:401AC000BA68131CDB009B1ADB00C31828335B68C8183449BA68131CDB009B1ADB00CB1828335B685B00191C01F060F8031C9BB219B22F4BFA689200D1502A49BA68131CB4
:401B0000DB009B1ADB0059582648BA68131CDB009B1ADB00C3185B68CB185A1EFB689A4202D1BB680133BB60FB680133FB60FB68002B00D169E70F200321FFF715FB1D4B80
:401B40000F20191CFFF7EAFA1B4B1B78002B22D1194B01221A700023BB60BA68131CDB009B1ADB000F4A9B18181CFFF765FE134A0C48B9680B1CDB005B1ADB00C31820331A
:401B80001B681360BB68DBB2181C00F081FDBB68181CFFF711FFC046BD4604B080BDC046080C0020583C0000340C002010270000380C0020351C0000090C002020003A409D
:401BC00080B500AF174B1A681749131CDB009B1ADB00CB1830331B68022213400BD000F087FD00F0EFFB00F0E1F9012000F020FA012000F029FC0D4B1B68002B0EDBC0469A
:401C00000B4B1B68002BFBDB084B084A1268802109060A431A600A20FFF73CFBC046BD4680BDC0460C0C0020583C000000003A40A0023A4080B582B000AF044B1B687B606C
:401C4000024B7A681A60BD4602B080BD10023A4080B500AF054B054A126805490A431A60044B72221A60BD4680BDC04600023F401000008008023F4080B500AF034B034A6F
:401C8000126801210A431A60BD4680BD08023F4080B500AF064B1B78002B04D1044B01221A70FFF7D5FFFFF7E7FFBD4680BDC046100C002080B500AF104B114A1A60114B9C
:401CC000104A1268802109060A431A600E4B0E4A12680E490A401A600B4B0B4A12680C490A431A60084B1B680322134001D000F011F8082000F032F8BD4680BD180C002034
:401D0000030008000000314004003140FBF7FFFF0408000080B500AF054A054B1968054B1B68032003400B431360BD4680BDC04604003140180C002080B500AF064B1B78F1
:401D4000002B04D1FFF7B6FF034B01221A70FFF7E1FFBD4680BDC046140C0020B0B584B000AF7860254B1B68254A1A40234B1A607B681A04F0231B031A40204B1B681A43C6
:401D80001E4B1A601F4B1B681F4A1340FB601D4A1A4B1968F0231B031940FB681943081C164B1B685B0C07211940144B1B68032423405D1E154C0B1C5B005B185B199B006A
:401DC0001959F0231B050B4003431360104A0B4B1B685B0C07211940084B1B68032003405C1E0A480B1C5B005B181B199B001B5803210B401360BD4604B0B0BD180C002096
:401E0000FFFFF0FF04003140FFFFF0F0903C0000080F314080B584B000AF021CBB1D1A807B1D0A1C1A700B4B1B6807221340FB60BB1D1B881A02FB681A437B1D1B78DB0011
:401E4000FF210B401343BB60024BBA681A60BD4604B080BD0403004080B500AF002000F0E7F8BD4680BDC04680B584B000AF786039600023FB600DE0FB68DB007A68D3184A
:401E80001B68FA68D20079688A1852681A60FB680133FB60FA683B689A42EDD3BD4604B080BDC04680B584B000AF786000F07EF87B689B7A191C7B681B683A4A101C1A1C58
:401EC00000F09AF97B689B7A374A944663449B00191C7B689B7A1A1C131C9B079B1A9B004033081C00211A1C00F0A6F97B685A687B68DB7A101C191CFFF7B6FF7B681B8959
:401F00001A1C80235B0113401A0B0F23FB181A700F23FB181B78181C00F070F87B681B891A1C80239B0113405A0B0E23FB181A700E23FB181B78181C00F046F87B681B897F
:401F4000DAB20D23FB180F210A401A700D23FB181B784420191C00F07DF87B681B891A1CF02313401A090C23FB181A700C23FB181B785420191C00F06DF87B681B891A1C18
:401F8000F0231B0113401A0A0B23FB181A700B23FB181B786420191C00F05CF8BD4604B080BDC04680023440A0000D1080B500AF044B044A1268802109060A431A60BD46BD
:401FC00080BDC0460000344080B582B000AF021CFB1D1A70074B074A126807491140FA1D127810068022520402400A431A60BD4602B080BD00033440FFFFFFFE80B582B013
:4020000000AF021CFB1D1A70074B074A126807491140FA1D127810068022520402400A431A60BD4602B080BD00023440FFFFFFFE80B582B000AF7860054B054A12685200FF
:4020400051087A68D2070A431A60BD4602B080BD7802344090B583B000AF78600A1CFB1C1A707B68442B11D07B68542B0CD07B68642B07D07B68FF221340594A94466344AA
:402080001A1C04E0574A02E0574A00E0574A7B68442B10D07B68542B0BD07B68642B06D07B68FF210B404E498C46634404E04D4B02E04D4B00E04D4B1968786880231B04BB
:4020C0000340DB0D20D07868F8235B0303401B0C032B17D97868F8235B0303401B0C043B032B0CD97868F8235B0303401B0C083B032B02D8F1235B420FE03D4B0DE0102379
:402100005B420AE03B4B08E07868F8235B0303401B0C181C0F238340DB431940FB1C18787C6880231B042340DB0D1ED07C68F8235B0323401B0C032B15D97C68F8235B0361
:4021400023401B0C043B032B0BD97C68F8235B0323401B0C083B032B01D804230AE0082308E0002306E00C2304E07C68F8235B0323401B0C98407C6880231B042340DB0D63
:4021800020D07C68F8235B0323401B0C032B16D97C68F8235B0323401B0C043B032B0CD97C68F8235B0323401B0C083B032B01D8F0230FE0F0231B010CE00F230AE0F02375
:4021C0001B0207E07C68F8235B0323401B0C1C1C0F23A34003400B431360BD4603B090BD00023440640234405402344044023440FFF0FFFFFF0FFFFF80B586B000AFF86061
:40220000B9607A60BB68102B13D800237B610CE07B699B00FA68D3187A69520079688A1812881A607B6901337B617A69BB689A42EED3BD4606B080BD80B586B000AFF860E0
:40224000B9607A607B689B087B6108E07B69013B7B617B699B00FA68D318BA681A607B69002BF3D1FB68181CBD4606B080BDC04680B500AF002000F0E7F8BD4680BDC0463E
:4022800080B584B000AF786039600023FB600DE0FB68DB007A68D3181B68FA68D20079688A1852681A60FB680133FB60FA683B689A42EDD3BD4604B080BDC04680B584B0BB
:4022C00000AF786000F07EF87B689B7A191C7B681B683A4A101C1A1CFFF78EFF7B689B7A374A944663449B00191C7B689B7A1A1C131C9B079B1A9B004033081C00211A1CEE
:40230000FFF79AFF7B685A687B68DB7A101C191CFFF7B6FF7B681B891A1C80235B0113401A0B0F23FB181A700F23FB181B78181C00F070F87B681B891A1C80239B0113406F
:402340005A0B0E23FB181A700E23FB181B78181C00F046F87B681B89DAB20D23FB180F210A401A700D23FB181B784420191C00F07DF87B681B891A1CF02313401A090C234E
:40238000FB181A700C23FB181B785420191C00F06DF87B681B891A1CF0231B0113401A0A0B23FB181A700B23FB181B786420191C00F05CF8BD4604B080BDC04680033440BD
:4023C000E0000D1080B500AF044B044A1268802109060A431A60BD4680BDC0460000344080B582B000AF021CFB1D1A70074B074A126807491140FA1D127810068022520471
:4024000002400A431A60BD4602B080BD00033440FFFFFFFE80B582B000AF021CFB1D1A70074B074A126807491140FA1D127810068022520402400A431A60BD4602B080BDF1
:4024400000023440FFFFFFFE80B582B000AF7860054B054A1268520051087A68D2070A431A60BD4602B080BD7803344090B583B000AF78600A1CFB1C1A707B68442B11D0DD
:402480007B68542B0CD07B68642B07D07B68FF221340594A944663441A1C04E0574A02E0574A00E0574A7B68442B10D07B68542B0BD07B68642B06D07B68FF210B404E49BF
:4024C0008C46634404E04D4B02E04D4B00E04D4B1968786880231B040340DB0D20D07868F8235B0303401B0C032B16D97868F8235B0303401B0C043B032B0BD97868F823C8
:402500005B0303401B0C083B032B01D83E4B10E03E4B0EE0F1235B420BE010235B4208E07868F8235B0303401B0C181C0F238340DB431940FB1C18787C6880231B04234032
:40254000DB0D1ED07C68F8235B0323401B0C032B15D97C68F8235B0323401B0C043B032B0BD97C68F8235B0323401B0C083B032B01D808230AE00C2308E0042306E00023BD
:4025800004E07C68F8235B0323401B0C98407C6880231B042340DB0D20D07C68F8235B0323401B0C032B17D97C68F8235B0323401B0C043B032B0DD97C68F8235B03234098
:4025C0001B0C083B032B02D8F0231B010EE0F0231B020BE0F02309E00F2307E07C68F8235B0323401B0C1C1C0F23A34003400B431360BD4603B090BD000334406402344090
:402600005402344044023440FFF0FFFFFF0FFFFF80B584B000AF021CBB1D1A807B1D0A1C1A700B4B1B6807221340FB60BB1D1B881A02FB681A437B1D1B78DB00FF210B40B5
:402640001343BB60024BBA681A60BD4604B080BD0003004080B582B000AFFB1D00221A7009E0FB1D1B78181CFEF704FCFB1D1A78FB1D01321A70FB1D1B78032BF1D9034BC2
:40268000FF221A70BD4602B080BDC046B402002080B582B000AF021CFB1D1A70FFF7DAFFFB1D1B78181CFEF7CBFB034BFA1D12781A70BD4602B080BDB402002080B500AF3D
:4026C000074B03221A60074B802212061A60064B00221A60054B03221A60BD4680BDC046200C00200000304004003040080F304080B500AF054A054B1968054B1B680B4365
:40270000802109010B431360BD4680BD04003040200C002080B500AF034B034A126803490A401A60BD4680BD04003040FCF7FFFF80B500AF0020FEF73FFEBD4680BDC04603
:4027400080B582B000AF78607B680020191CFEF755FEBD4602B080BD80B582B000AF786039607A683B680020111C1A1CFEF778FEBD4602B080BDC04680B582B000AF786019
:4027800039607A683B680020111C1A1CFEF798FEBD4602B080BDC04680B582B000AF786039600E4B1B78002B04D100F019F80B4B01221A70FEF782FD7B680020191CFFF7DC
:4027C000CBFF3B680020191CFFF7D6FF0020FFF7B7FFFFF7ADFFBD4602B080BD240C002080B500AF084B00221A60084B084A9A60064B00229A61074B064A126801210A4331
:402800001A60BD4680BDC0468010104000181040FF00610BF817104080B500AF00F070F8BD4680BD80B500AF064B064A1268802109060A431A6000F019F800F01BF8BD46CD
:4028400080BDC0460000084080B500AF064B1B78002B04D1FFF7E0FF034B01221A70FFF7E1FFBD4680BDC046260C002080B500AFBD4680BD80B500AF00F0A2F8BD4680BDF5
:4028800080B582B000AF7860C046064B1B681F221340082BF9D0044B7A681A60BD4602B080BDC046080208404002084080B584B000AF786039600023FB6009E07A68FB680C
:4028C000D3181B78181CFFF7DBFFFB680133FB60FA683B689A42F1D3BD4604B080BDC04680B582B000AF054B1B681F2213407B607B68181CBD4602B080BDC046080208400C
:4029000080B500AF1B4B1C4A1A601C4B00221A601B4B01221A601B4B1B4A1A601B4B07221A601B4B00221A601A4B01221A601A4B154A1A60194B00221A60194B04221A60D3
:40294000184B00221A60184B00221A60174B00221A60174B00221A60164B00221A60164B00221A60144B1B689AB2144B1A80BD4680BDC046000008400B0000024000084019
:40298000480008400003084007000080040308401003084044000840000208400402084050000840880E0840C80E0840480F0840080F0840C80F0840880F0840280C002003
:4029C00080B500AF074B074A126807490A40902109040A431A60054B054A12881A60BD4680BDC04600000240FFFF0FFF880F0840280C0020000000000230800803D001307F
:402A00000238FCD1C046C0467047EFF3108072B6704780F31088704790B585B000AF78600F23FC18FFF7F1FF031C23707B68102B06D8154B144A126803218A431A601AE041
:402A40007B68202B08D8104B0F4A126803218A4301210A431A600EE07B68302B08D80A4B094A126803218A4302210A431A6002E00020FEF7E1FB0F23FB181B78181CFFF762
:402A8000C8FFBD4605B090BD30001040002243088B4274D303098B425FD3030A8B4244D3030B8B4228D3030C8B420DD3FF22090212BA030C8B4202D31212090265D0030BA0
:402AC0008B4219D300E0090AC30B8B4201D3CB03C01A5241830B8B4201D38B03C01A5241430B8B4201D34B03C01A5241030B8B4201D30B03C01A5241C30A8B4201D3CB0247
:402B0000C01A5241830A8B4201D38B02C01A5241430A8B4201D34B02C01A5241030A8B4201D30B02C01A5241CDD2C3098B4201D3CB01C01A524183098B4201D38B01C01A58
:402B4000524143098B4201D34B01C01A524103098B4201D30B01C01A5241C3088B4201D3CB00C01A524183088B4201D38B00C01A524143088B4201D34B00C01A5241411A2F
:402B800000D20146524110467047FFE701B5002000F0FCF802BDC0460029F7D003B5FFF775FF0EBC4243891A1847C04603460B437FD4002243088B4274D303098B425FD318
:402BC000030A8B4244D3030B8B4228D3030C8B420DD3FF22090212BA030C8B4202D31212090265D0030B8B4219D300E0090AC30B8B4201D3CB03C01A5241830B8B4201D3B2
:402C00008B03C01A5241430B8B4201D34B03C01A5241030B8B4201D30B03C01A5241C30A8B4201D3CB02C01A5241830A8B4201D38B02C01A5241430A8B4201D34B02C01AE0
:402C40005241030A8B4201D30B02C01A5241CDD2C3098B4201D3CB01C01A524183098B4201D38B01C01A524143098B4201D34B01C01A524103098B4201D30B01C01A524162
:402C8000C3088B4201D3CB00C01A524183088B4201D38B00C01A524143088B4201D34B00C01A5241411A00D201465241104670475DE0CA0F00D04942031000D34042534028
:402CC00000229C4603098B422DD3030A8B4212D3FC22890112BA030A8B420CD3890192118B4208D3890192118B4204D389013AD0921100E08909C3098B4201D3CB01C01AA9
:402D0000524183098B4201D38B01C01A524143098B4201D34B01C01A524103098B4201D30B01C01A5241C3088B4201D3CB00C01A524183088B4201D38B00C01A5241D9D29B
:402D400043088B4201D34B00C01A5241411A00D20146634652415B10104601D34042002B00D54942704763465B1000D3404201B5002000F00BF802BD0029F8D003B5FFF716
:402D800015FF0EBC4243891A1847C0467047C046014B18687047C046180300200E4B70B500251E1C0D4CE41AA410A54204D0AB00F35898470135F8E700F0AAFF084B002589
:402DC0001E1C084CE41AA410A54204D0AB00F35898470135F8E770BD1C3D00001C3D00001C3D0000243D0000002310B5934203D0CC5CC4540133F9E710BD00000EB410B51D
:402E00009DB002A9029008610B48822488604861012040421FABC881084804CBA400006801938C8100F074F80023029A13701DB010BC08BC03B01847FFFFFF7F18030020CF
:402E40000023C25C0133002AFBD1581E70470000F0B58E6885B0071C0C1C03920193B34245D390238A89DB001A423DD003250969236801985B1A029363695D43EB0F5D19BB
:402E8000029B6D1001331B189D4200D21D1C381C53050FD5291C00F01DFB061E13D0029A2169FFF7A1FFA289184B134080221343A38111E02A1C00F065FB061E0CD1381C2E
:402EC000216900F0C1FA0C23402201203B60A38940421343A38117E0029B2661F61826606561019EED1AA560019BB34200D2019E321C2068039900F092FA0020A3689B1B37
:402F0000A36023689E19266005B0F0BD7FFBFFFFF0B59FB0029005938B890E1C171C1B0610D50B69002B0DD1402100F0D3FA30603061002804D10C23029A01381360D0E077
:402F400040237361002306AD6B6120336B761033AB763C1C2378002B03D1E31B049312D003E0252BF9D00134F4E7049B0298311C3A1CFFF76DFF431C00D1ACE06A69049BFF
:402F8000944663446B612378002B00D1A3E00122002352426A6002A95432521801342B60EB60AB601370AB654F4F2178381C052200F02AFA002808D0C01B01278740381CDE
:402FC0002B68013418432860EEE72B68DA0604D55322202102A8121811701A0704D553222B2102A81218117022782A2A01D0099B0EE0059A111D12680591002A01DB09921B
:4030000004E05242EA60022213432B60013409E02278303A092A04D80A214B4301349B18F6E7099323782E2B18D163782A2B09D1059B02341A1D1B680592002B0DDA01233A
:403040005B420AE0002301342278303A092A04D80A214B4301349B18F6E70793234F2178381C032200F0D0F9002807D0C01B40278740381C2B6801341843286021781C4805
:403080000622671C297600F0BFF9002812D0194B002B06D10722059B073393430833059314E005AB00930298291C321C124B00E000BF07E005AB00930298291C321C0E4BF2
:4030C00000F08AF80390039B013304D06B69039A9B186B613DE7B3890B985B0601D5012040421FB0F0BDC046DA3C0000E03C0000E43C000000000000512E0000F7B5171C26
:4031000001930A698B6800900C1C934200DA131C221C3B6043321278002A01D001333B6023689B0602D53B6802333B60062523681D401ED0231C43331B785A1E93412268C8
:4031400092061CD53020E1184031C870211C5A1C45310978A21840320233D1700FE0221C0123009801991932089EB047431C0ED00135E3683A689B1A9D42F0DBDAE7221C5F
:40318000009801994332089DA847431C02D10120404220E006232068E1683A6803400025042B03D18D1AEB43DB171D40A3682269934201DD9B1AED180027AF420ADA221C97
:4031C0000123009801991A32089EB047431CDED00137F2E70020FEBDF0B58BB006920A1C43320793059004920A7E0C1C109B6E2A00D1A8E011D8632A22D009D8002A00D12F
:40320000B2E0582A00D0C2E045310A707C4A4FE0642A1DD0692A1BD0B9E0732A00D1A7E009D86F2A29D0702A00D0B0E0202209680A43226037E0752A1FD0782A33D0A6E0DD
:403240000E1C1A684236111D196013683370A1E021681A68080606D4490604D5111D19600023D55E02E0111D19601568002D3BDA2D23049A6D42137036E021681A68080635
:4032800006D4490604D51568111D1960ADB202E0111D196015685A4B227E03930A276F2A1DD108271BE0221C782145321170554A19680392081D226818600D68100602D4BA
:4032C000500600D5ADB2D30702D520231A4322601027002D03D1202322689A432260231C002243331A7002E00A27454B03936368A360002B03DB0422216891432160002D6B
:4033000002D1049E002B0ED0049E281C391CFFF743FC039B013E5B5C281C3370391CFFF7B5FB051EF1D1082F09D12368DB0706D563682269934202DC3023013E3370049B0E
:403340009B1B23612BE009681A68080607D4490605D5111D19601368A28A1A8004E0111D1960136862691A600023049E236116E01A68111D196016680021301C626800F0C3
:4033800043F8002801D0801B6060636803E0261C42363270012323610023049A1370079B05980093211C069B09AAFFF7A7FE431C02D10120404221E0236905980699321C9E
:4033C000079DA847431CF4D023689B0705D4099BE068984212DA181C10E00025E368099A9B1A9D42F3DA221C0123059806991932079EB047431CDCD00135EFE70BB0F0BDC3
:40340000EB3C0000FC3C0000C9B28218904204D003788B4202D00130F8E70020704710B5814208D28B18984205D29B1A013A09D3995C8154FAE70023934203D0CC5CC45439
:403440000133F9E710BD000030B500293ED004390B68002B00DAC9181D4A1368141C002B02D14B60116031E099420DD208680A189A4203D11368C3180B6053684B602160D8
:4034800024E08A4203D8131C5A68002AF9D11D685C198C420BD10968691858181960904214D110685268091819605A600EE08C4202D90C23036009E008680C18944203D170
:4034C00014685268001908604A60596030BDC046300C0020032370B5CC1C9C430834051C0C2C01D20C2405E0002C03DA0C2300202B6042E08C42F9D3204A1368101C191CEF
:40350000002913D00A68121B0DD40B2A02D90A608B181FE08B4202D15A6802601BE04A685A600B1C17E00B1C4968E9E7144E3368002B03D1281C00F04BF83060281C211C6E
:4035400000F046F8031C421CD0D00322C61C964386420AD11C60181C07210B301A1D8843821A0AD05142995007E0311A281C00F02FF8431CBAD0331CECE770BD300C002055
:403580002C0C0020F8B5061C0C1C151C002904D1111CFFF79FFF041C18E0002A03D1FFF753FF2C1C12E000F025F8A8420ED2301C291CFFF78FFF071E07D0211C2A1CFFF7D3
:4035C00013FC301C211CFFF73FFF3C1C201CF8BD38B50023064C051C081C2360FDF7F0FA431C03D12368002B00D02B6038BDC0463C0C00200B1F1A68101F002A04DA891883
:4036000004390B68D018043870470000000000000000C90092015B022403ED03B6047E0547061007D907A1086A09320AFB0AC30B8B0C530D1B0EE30EAB0F721039110012DA
:40364000C7128E1355141B15E115A7166D173318F818BD19821A461B0B1CCF1C931D561E191FDC1F9F2061212322E422A62367242725E725A72667272628E528A329612A24
:403680001E2BDB2B982C542D102ECC2E862F4130FB30B4316D322633DE3396344D350336B9366F372438D8388C393F3AF23AA43B563C073DB73D673E163FC53F7340204154
:4036C000CD4179422543D0437A442345CC4574461C47C34769480E49B349574AFA4A9D4B3F4CE04C804D204EBF4E5D4FFA4F97503351CE51685201539A533254C9545F5587
:40370000F45589561D57B0574258D3586359F359815A0F5B9C5B285CB35C3D5DC65D4F5ED65E5D5FE25F6760EB606E61F0617162F1627063EE636B64E7646265DD65566654
:40374000CE664567BC673168A56819698B69FC696C6ADB6A4A6BB76B236C8E6CF86C616DC96D306E956EFA6E5E6FC06F22708270E17040719D71F9715472AE7206735E73AF
:40378000B5730A745E74B17403755475A475F37540768D76D87622776B77B377F9773F788378C678087949798979C779047A417A7C7AB57AEE7A257B5C7B917BC47BF77B1F
:4037C000297C597C887CB67CE27C0E7D387D617D897DB07DD57DF97D1C7E3E7E5E7E7E7E9C7EB97ED47EEF7E087F207F377F4C7F617F747F867F967FA67FB47FC17FCD7FEC
:40380000D77FE07FE87FEF7FF57FF97FFC7FFE7FFF7FFE7FFC7FF97FF57FEF7FE87FE07FD77FCD7FC17FB47FA67F967F867F747F617F4C7F377F207F087FEF7ED47EB97EC0
:403840009C7E7E7E5E7E3E7E1C7EF97DD57DB07D897D617D387D0E7DE27CB67C887C597C297CF77BC47B917B5C7B257BEE7AB57A7C7A417A047AC779897949790879C6781C
:4038800083783F78F977B3776B772277D8768D764076F375A47554750375B1745E740A74B5735E730673AE725472F9719D714071E17082702270C06F5E6FFA6E956E306EA8
:4038C000C96D616DF86C8E6C236CB76B4A6BDB6A6C6AFC698B691969A5683168BC674567CE665666DD656265E7646B64EE637063F1627162F0616E61EB606760E25F5D5F09
:40390000D65E4F5EC65D3D5DB35C285C9C5B0F5B815AF3596359D3584258B0571D578956F4555F55C95432549A5301536852CE5133519750FA4F5D4FBF4E204E804DE04C65
:403940003F4C9D4BFA4A574AB3490E496948C3471C477446CC4523457A44D04325437942CD4120417340C53F163F673EB73D073D563CA43BF23A3F3A8C39D83824386F3712
:40398000B93603364D359634DE3326336D32B431FB304130862FCC2E102E542D982CDB2B1E2B612AA329E52826286727A726E72527256724A623E422232261219F20DC1F48
:4039C000191F561E931DCF1C0B1C461B821ABD19F81833186D17A716E1151B1555148E13C712001239117210AB0FE30E1B0E530D8B0CC30BFB0A320A6A09A108D907100716
:403A000047067E05B604ED0324035B029201C900000037FF6EFEA5FDDCFC13FC4AFB82FAB9F9F0F827F85FF796F6CEF505F53DF475F3ADF2E5F11DF155F08EEFC7EE00EE67
:403A400039ED72ECABEBE5EA1FEA59E993E8CDE708E743E67EE5BAE4F5E331E36DE2AAE1E7E024E061DF9FDEDDDD1CDD5ADC99DBD9DA19DA59D999D8DAD71BD75DD69FD58C
:403A8000E2D425D468D3ACD2F0D134D17AD0BFCF05CF4CCE93CDDACC22CC6ACBB3CAFDC947C991C8DCC728C774C6C1C50EC55CC4AAC3F9C249C299C1EAC03BC08DBFE0BEDC
:403AC00033BE87BDDBBC30BC86BBDDBA34BA8CB9E4B83DB897B7F2B64DB6A9B506B563B4C1B320B380B2E0B141B1A3B006B069AFCDAE32AE98ADFFAC66ACCEAB37ABA1AA29
:403B00000CAA77A9E3A850A8BEA72DA79DA60DA67FA5F1A464A4D8A34DA3C3A23AA2B1A12AA1A3A01EA0999F159F929E109E8F9D0F9D909C129C959B199B9E9A239AAA99DA
:403B40003299BB984498CF975B97E7967596049694952595B6944994DD93729308939F923792D0916B910691A2904090DE8F7E8F1F8FC08E638E078EAC8D528DFA8CA28CFF
:403B80004B8CF68BA28B4F8BFD8AAC8A5C8A0D8AC08973892889DE8895884D880788C1877D873A87F886B78677863986FC85BF8584854B851285DB84A4846F843C8409840F
:403BC000D783A78378834A831E83F282C8829F82778250822B820782E481C281A2818281648147812C811181F880E080C980B4809F808C807A806A805A804C803F803380C2
:403C000029802080188011800B800780048002805B4D454153555245445D3A2025642852504D29202D205B61742054494D455354414D505D3A202564286D73290A0D0000D0
:403C4000EEDBC9B9AA9B8E82766B60564D443B332C241D17100A04000000000001000000600020508D0044D056000200020002000000000400000000010000000000000099
:403C80000000000072060000030000001D0063000200000F0200000F0200000F02000007020000090200000902000004020000040200000401000003020000020200000398
:403CC0000100000102000000020000000100000101000001010000024300232D302B2000686C4C00656667454647003031323334353637383941424344454600303132331D
:403D000034353637383961626364656600000000F8B5C046F8BC08BC9E46704769010000A90C0000F8B5C046F8BC08BC9E46704741010000483D0000B00000207002000033
:403D4000200900000000000000000000400C0020006CDC0280BB0000300000000000C05D01000000A9130000A9130000A9130000A9130000A9130000A9130000A9130000B7
:403D8000A9130000010000000404040000033440070070803003344020200000340334401F1F0000780334400100003F200334406D000000740334401111110070033440C4
:403DC0000000000F400334400000F0004803344000000F0050033440000010005403344000020000600334400C00000064033440000B00006803344000F00F006C03344011
:403E0000F000000004033440000000005803344020F001000803344005040C1C00023440070000803002344020200000340234401F1F0000780234400100003F20023440F8
:403E40006D0000007402344011111100700234401000000F4002344000001000440234400002000048023440100002005002344000C0000054023440000B00006002344030
:403E800000A0000064023440000900006C023440F030000004023440000000005802344000F00F006802344020F01000080234408102001A74020020F4000020001002124F
:403EC00034020020840100200010021305EE06E10002344007000080300234402020000034023440000000007802344001000020700234401000000F74023440111111000A
:403F000034020020380200200010020605EE06E10003344007007080300334402020000034033440000000007803344001000020700334400000000F7403344011111100BB
:403F4000740200207802002000100206FF0000000000000000000000000000000000000000000000000000000000000000000000D83C0000000000000000000000000000E6
:403F8000000000000000000000000000000000000000000000000000000000000000000000000000000000000000000000000000B802002000000000000000000000000027
:403FC00000000000000000000000000000000000000000000000000000000000000000000000000000000000000000000000000000000000000000000000000000000000C1
:404000000000000000000000000000000000000000000000000000000000000000000000000000000000000000000000000000000000000000000000000000000000000080
:404040000000000000000000000000000000000000000000000000000000000000000000000000000000000000000000000000000000000000000000000000000000000040
:404080000000000000000000000000000000000000000000000000000000000000000000000000000000000000000000000000000000000000000000000000000000000000
:0200000490303A
:02000000B07ED0
:0200000490402A
:200000000000000000000000000000000000000000000000000000000000000000000000E0
:0200000490501A
:0C00000000021C0011AC00011C15C22AFB
:0200000490600A
:0100000001FE
:00000001FF